:020000040800F2
:10000000FCFF0020AD180000611700006117000020
:100010006117000061170000611700006117000000
:1000200061170000611700006117000061170000F0
:1000300061170000611700006117000061170000E0
:1000400061170000611700006117000061170000D0
:1000500061170000611700006117000061170000C0
:1000600061170000611700006117000061170000B0
:1000700061170000611700006117000061170000A0
:100080006117000061170000611700006117000090
:100090006117000061170000611700006117000080
:1000A0006117000061170000611700006117000070
:1000B0006117000061170000611700006117000060
:1000C0006117000061170000611700006117000050
:1000D0006117000061170000611700006117000040
:1000E0006117000061170000611700006117000030
:1000F0006117000061170000611700006117000020
:10010000611700006117000061170000611700000F
:1001100061170000611700006117000061170000FF
:1001200061170000611700006117000061170000EF
:1001300061170000611700006117000061170000DF
:1001400061170000611700006117000061170000CF
:1001500001480068704700BFCC00002083B0CDF894
:1001600000E000F0FF031A09104603F00F021346E7
:1001700014E0194A02921FE0184A02921CE0184A41
:10018000029219E0174A029216E0174A029213E00F
:10019000164A029210E0164A02920DE00028E8D0BA
:1001A0000128E9D00228EAD00328EBD00428ECD0BB
:1001B0000528EDD00628EED0012212B29A40ADF803
:1001C000042002980A46BDF8041000F035F9DDF865
:1001D00000E003B0704700BF00080140000C014080
:1001E000001001400014014000180140001C0140B3
:1001F0000020014081B0194900EA010108460022AF
:100200000EE0042022E0082020E010201EE0202044
:100210001CE040201AE0802018E040F2001015E0B9
:100220000F498842EDD00F498842ECD00E498842F0
:10023000EBD00E498842EAD00D498842E9D00D49F9
:100240008842E8D00C498842E7D010460B4909683B
:1002500041EA000209490A6001B0704700FCFFFF53
:1002600000080140000C0140001001400014014052
:1002700000180140001C01400020014018100240FD
:1002800081B0CDF800E0012252B23E490A6000F28E
:1002900068010B686FF0006103EA0102144603F085
:1002A0000061C90E0B4602F00041B1F1004F02D1CE
:1002B00035490A6801E035490A6804F47021090CDF
:1002C0000E464FF6FF7104EA01010D4604F4401199
:1002D000B1F5401F0DD16FF0706102EA01010E46C9
:1002E0002A490A686FF070610A4028490A6032465C
:1002F00016E004F48011B1F5801F09D14FF003011D
:10030000B140C94302EA010141F070610A4607E0C9
:10031000610D090105FA01F1C9430A4042F070621A
:100320002BB1610D090105FA01F10A43FFE704F061
:100330000041B1F1004F02D113490A6001E01349B5
:100340000A6040F2000A81464FEA8A0109EB010186
:100350000968B1F1FF3F10D009F134014FEA8A0377
:10036000C91809680A4609EB0301096808461146DD
:10037000FFF7F4FE0AF1010AE6E7DDF800E001B05C
:10038000704700BF000342421C00014004000140CE
:1003900082B0CDF800E0034619460191FFF7D8FE80
:1003A00040F2E83100FB01F201990A601F49097827
:1003B000C1F30311C8B21E4909180878C0B21A1D4A
:1003C0001968C140116019490988C1F3022188B236
:1003D000174909180878C0B203F20802191D096804
:1003E000C140116011490988C1F3C22188B2104986
:1003F00009180878C0B203F20C02191D0968C1403F
:1004000011600A490988C1F3813188B20949091884
:100410000978C8B203F2100203F20C010968B1FBBB
:10042000F0F11160DDF800E002B070470410024006
:10043000F81A0000081B000081B0CDF800E08CB273
:100440001546774B00EA03031E461846FFF7D2FE17
:10045000B4F1FF0F0CD1734B9D4203D14FF03333F6
:100460003360D9E0422D03D14FF044333360D3E001
:100470004FF6FF739C4214D16A4B9D4207D14FF057
:1004800033333360341D4FF033332360C4E0422DE7
:1004900007D14FF044333360341D4FF044332360B1
:1004A000BAE00021002005F001030BB100211DE09E
:1004B00005F0020333B105F4C0730BB1082100E06D
:1004C000042113E005F0040333B105F020030BB160
:1004D000042100E0002109E005F0080333B105F034
:1004E00020030BB10C2100E00821FFE74E4B05EA89
:1004F00003030BB1032009E005F400730BB10220E4
:1005000004E005F480630BB10120FFE705F00C0364
:100510000BB10143FFE704F0FF039BB2002B3BD07C
:10052000376800201FFA84F832462E4608282CD25D
:100530004FF0010303FA00F408EA0403A34222D1B6
:1005400085004FF00F03AB40DB4307EA030401FAD9
:1005500005F344EA03031D4606F48173B3F5817F76
:1005600005D102F214044FF001038340236006F02A
:100570008203822B05D102F210044FF00103834065
:1005800023602F46FFE7401CD0E717601FFA88F072
:100590000F463146164602E00F462946A0B2B0F19A
:1005A000FF0F39D9331DD3F800800022082A30D23A
:1005B00002F208044FF0010303FA04F400EA040312
:1005C000A34224D195004FF00F03AB40DB4308EA70
:1005D000030807FA05F348EA030801F48173B3F549
:1005E000817F07D106F2140502F208044FF00103DF
:1005F000A3402B6001F08203822B07D106F2100585
:1006000002F208044FF00103A3402B60FFE7521CE5
:10061000CCE7331DC3F80080DDF800E001B070477F
:1006200000FCFFFF140008000008080089B0CDF8A6
:1006300000E0834698B28C46BDF824100A9E04ACB4
:10064000ADF80410ADF808002046FFF7A1FEBDF894
:100650000800BDF80410644CA34512D101256DB209
:10066000624C2560624D634C2560634D634C256090
:10067000634D644C2560644D644C2560079C039475
:1006800056E0634CA34512D101256DB2614C256043
:10069000614D584C2560614D584C2560604D594C5A
:1006A0002560604D594C2560069C039440E05E4CEB
:1006B000A34512D101256DB25C4C25605C4D4D4CBB
:1006C00025605C4D4D4C25605B4D4E4C25605B4D6F
:1006D0004E4C2560069C03942AE0594CA34512D148
:1006E00001256DB2574C2560574D424C2560574D42
:1006F000424C2560564D434C2560564D434C256079
:10070000069C039414E0544CA34511D101256DB20D
:10071000524C2560524D374C2560524D374C256068
:10072000514D384C2560514D384C2560069C039442
:10073000ADF80410ADF808003046FFF7A1FDBDF894
:100740000800BDF804100BF1100500242C600BF11B
:1007500010052C680C432C600BF10C0500242C6058
:1007600018B140F4806080B2FFE70BF10C052C68F3
:1007700004432C600BF10C060125346865F34D34FD
:1007800034600BF10C060125346865F3C304346052
:100790000BF10C060125346865F3820434600BF11B
:1007A000140500242C60039D192465434FEA8C0432
:1007B000B5FBF4F76424B7FBF4F42601350964248F
:1007C0006C433C1B240104F232056424B5FBF4F4B1
:1007D00004F00F0446EA04040BF10805A4B22C60EF
:1007E000DDF800E009B070470038014038034242AC
:1007F000D10A0000D0000020FFFFFFFFD40000203E
:10080000FFFFFFFFD8000020FFFFFFFFDC000020FC
:1008100000440040C4034242B50A0000FFFFFFFF4E
:10082000FFFFFFFFFFFFFFFF00480040C8034242F9
:10083000ED0A0000FFFFFFFFFFFFFFFFFFFFFFFFCD
:10084000004C0040CC034242250B0000FFFFFFFF9D
:10085000FFFFFFFFFFFFFFFF00500040D0034242B9
:10086000090B0000FFFFFFFFFFFFFFFFFFFFFFFF80
:1008700081B0ADF800100146BDF800000B68C3F36D
:10088000C01202B9FAE70A1D106001B07047FFFFFD
:1008900001480068704700BF080122420148006813
:1008A000704700BF2801224201480068704700BF1E
:1008B0003481224201490860704700BF9C81214277
:1008C00001490860704700BF9881214201480068D3
:1008D000704700BF1001214201490860704700BF06
:1008E0009481224201490860704700BF940121426F
:1008F00001490860704700BF8C012242014908602D
:10090000704700BFB881224201490860704700BFAC
:10091000A081224201490860704700BF98812142AE
:1009200001490860704700BF9C812142014908606D
:10093000704700BFB081224201490860704700BF84
:10094000B081224201490860704700BF988122426D
:1009500001490860704700BFA801224201490860B0
:10096000704700BFAC01224201490860704700BFD8
:10097000B001224201480068704700BF2C012242AA
:1009800001480068704700BF30812242014800687A
:10099000704700BF3081224201480068704700BFA5
:1009A0003001224201480068704700BF28012242FE
:1009B00001480068704700BF2C01224201480068CE
:1009C000704700BF1C81214281B00A4681B20020DD
:1009D0008DB21146052805D20B1820221A70401C32
:1009E000C0B2F7E70B1800221A70401EC0B20C18F4
:1009F0000A23B5FBF3F203FB125292B2303222709B
:100A00000A22B5FBF2F292B295B202B902E0401EA0
:100A1000C0B2ECE701B0704701480068704700BF02
:100A20001881214201480068704700BF18812242A6
:100A300001480068704700BF1481224201480068E5
:100A4000704700BF2481224201480068704700BF00
:100A50002081224201480068704700BF288122425D
:100A600001480068704700BF300122420148006819
:100A7000704700BF0001214201480068704700BF75
:100A80000C01224201480068704700BF38812242B1
:100A900001480068704700BF140121420148006806
:100AA000704700BF1881214201480068704700BFAD
:100AB0001C81214281B0CDF800E081B20348FFF7EC
:100AC000D7FEDDF800E001B0704700BF00440040F1
:100AD00081B0CDF800E081B20348FFF7C9FEDDF830
:100AE00000E001B0704700BF0038014081B0CDF890
:100AF00000E081B20348FFF7BBFEDDF800E001B083
:100B0000704700BF0048004081B0CDF800E081B2DE
:100B10000348FFF7ADFEDDF800E001B0704700BF0D
:100B20000050004081B0CDF800E081B20348FFF7EB
:100B30009FFEDDF800E001B0704700BF004C0040B0
:100B400081B0CDF800E0044A89B2FFF775FCDDF80A
:100B500000E001B0704700BF1400080081B0CDF87C
:100B600000E04FF0420289B2FFF766FCDDF800E0DA
:100B700001B0704781B0CDF800E0019D2C4610B463
:100B800008B493B28AB201460348FFF74FFD02B0A2
:100B9000DDF800E001B070470048004081B0CDF8BA
:100BA00000E0019D2C4610B408B493B28AB201460D
:100BB0000348FFF73BFD02B0DDF800E001B07047ED
:100BC0000038014081B0CDF800E0019D2C4610B402
:100BD00008B493B28AB201460348FFF727FD02B07A
:100BE000DDF800E001B070470044004001490860B2
:100BF000704700BFA801224201490860704700BF4A
:100C0000B481224201490860704700BFA48122429A
:100C100001490860704700BFA8812242014908606D
:100C2000704700BFAC01224201490860704700BF15
:100C3000B001224201490860704700BF8001214293
:100C400001490860704700BF8801224201490860DD
:100C5000704700BF9001214281B0CDF800E0094902
:100C600002B440F2000340F2000240F20001FFF73C
:100C7000A9FF01B0044A05490A600020DDF800E040
:100C800001B070472C1A0000B50A0000C000002017
:100C900040F20717C0F200077F1EFDD100BF00BF62
:100CA00000BF00BF00BF704781B0014640F20005A1
:100CB0002DB208460C460B46FFE70178202901D1EA
:100CC00005B904E001252DB201782170641C0246AB
:100CD000401C11780029F0D1184601B07047FFFF81
:100CE00081B0CDF800E00E46002183B2002805DA7D
:100CF0000121404280B280B28FB201E098B28FB23F
:100D00003146FFF761FE06213446B8B2002908D902
:100D100063184A1E92B2A21812781A70491E89B23C
:100D2000F4E72022227070B1002081B220464218E0
:100D30001278202A02D1491C89B2F8E74A1E92B2E1
:100D400083182D221A70DDF800E001B07047FFFF14
:100D500081B0CDF800E0094902B440F2000340F24E
:100D6000000240F20001FFF719FF01B0044A0549F3
:100D70000A600020DDF800E001B07047541900005F
:100D8000D10A0000C000002040F20B07C0F20007AB
:100D90007F1EFDD100BF00BF00BF00BF00BF704776
:100DA00081B0CDF800E0A9E0012905D140F21001A1
:100DB0006548FFF7D3FE04E040F210016248FFF7F8
:100DC000BFFEBBE0012905D140F204015F48FFF7F7
:100DD000C5FE04E040F204015C48FFF7B1FEADE05F
:100DE000012905D142F200015948FFF7B7FE04E09E
:100DF00042F200015648FFF7A3FE9FE0012905D10A
:100E000040F200415148FFF7A9FE04E040F20041E2
:100E10004E48FFF795FE91E0012905D140F600010B
:100E20004A48FFF79BFE04E040F600014748FFF701
:100E300087FE83E0012905D141F200014348FFF715
:100E40008DFE04E041F200014048FFF779FE75E0B5
:100E5000012905D140F201013B48FFF77FFE04E084
:100E600040F201013848FFF76BFE67E0012905D128
:100E700040F200413648FFF771FE04E040F20041C5
:100E80003348FFF75DFE59E0012905D140F200210A
:100E90002F48FFF763FE04E040F200212C48FFF7E3
:100EA0004FFE4BE0012905D140F200112848FFF721
:100EB00055FE04E040F200112548FFF741FE3DE0F9
:100EC000012905D140F240012248FFF747FE04E026
:100ED00040F240011F48FFF733FE2FE0012905D102
:100EE00040F280011B48FFF739FE04E040F2800128
:100EF0001848FFF725FE21E0012020E000283FF4FC
:100F000053AF01283FF45EAF02283FF469AF0328D6
:100F10003FF474AF04283FF47FAF05283FF48AAF55
:100F200006283FF495AF0728A0D00828ACD00928A0
:100F3000B8D00A28C4D00B28D0D0DDE70020DDF8D7
:100F400000E001B0704700BF000801400010014000
:100F500000140140000C014040F27707C0F2000786
:100F60007F1EFDD100BF00BF00BF00BF00BF7047A4
:100F700081B0CDF800E0094902B440F2000340F22C
:100F8000000240F20001FFF7F5FD01B0044A0549F7
:100F90000A600020DDF800E001B07047C0190000D1
:100FA000ED0A0000C000002081B0CDF800E0A9E00B
:100FB000012905D140F220016548FFF7CFFD04E08B
:100FC00040F220016248FFF7BBFDBBE0012905D1DB
:100FD00040F208015F48FFF7C1FD04E040F208015C
:100FE0005C48FFF7ADFDADE0012905D144F20001F9
:100FF0005948FFF7B3FD04E044F200015648FFF7FB
:101000009FFD9FE0012905D140F200415148FFF7C3
:10101000A5FD04E040F200414E48FFF791FD91E04C
:10102000012905D140F600014A48FFF797FD04E089
:1010300040F600014748FFF783FD83E0012905D111
:1010400041F200014348FFF789FD04E041F200014D
:101050004048FFF775FD75E0012905D141F2000117
:101060003D48FFF77BFD04E041F200013A48FFF7FD
:1010700067FD67E0012905D140F600013648FFF71A
:101080006DFD04E040F600013348FFF759FD59E0DB
:10109000012905D140F240012F48FFF75FFD04E030
:1010A00040F240012C48FFF74BFD4BE0012905D1F0
:1010B00040F220012848FFF751FD04E040F22001F2
:1010C0002548FFF73DFD3DE0012905D140F24001F3
:1010D0002248FFF743FD04E040F240011F48FFF7BC
:1010E0002FFD2FE0012905D140F280011B48FFF7B9
:1010F00035FD04E040F280011848FFF721FD21E0B2
:10110000012020E000283FF453AF01283FF45EAFF8
:1011100002283FF469AF03283FF474AF04283FF47A
:101120007FAF05283FF48AAF06283FF495AF072824
:10113000A0D00828ACD00928B8D00A28C4D00B28E1
:10114000D0D0DDE70020DDF800E001B0704700BF3F
:10115000000801400010014000140140000C014053
:1011600081B0CDF800E0034C2468A047DDF800E032
:1011700001B07047C400002081B0CDF800E00178D4
:10118000CCB2A0B2034C2468A0470020DDF800E0F8
:1011900001B07047C000002042F6DF67C0F20007D0
:1011A0007F1EFDD100BF00BF00BF00BF00BF704762
:1011B00081B0CDF800E00120034C2468A047DDF8A1
:1011C00000E001B0704700BFC800002081B0CDF83A
:1011D00000E00020034C2468A047DDF800E001B0E7
:1011E000704700BFC800002000F2300108310A68D3
:1011F00003490A6000F208010A6802490A60704760
:10120000C4000020C800002081B0CDF800E00949EA
:1012100002B440F2000340F2000240F20001FFF786
:10122000D1FC01B0044A05490A600020DDF800E065
:1012300001B070472C1A0000B50A0000C000002061
:1012400080B2704783B0CDF800E000208DF8040034
:101250009DF80400052840D201208DF805009DF876
:10126000050008282BD8FFF77BFF10B9FFF78CFD8E
:10127000F9E7FFF771FEFFF76FFEFFF76DFE9DF8D0
:10128000060040008DF80600FFF76AFF88B19DF860
:10129000060040F001008DF80600FFF7F9FCFFF7AB
:1012A000F7FCFFF771FDFFF75BFF10B1FFF76CFD77
:1012B000F9E79DF80500401C8DF80500CFE70DF11A
:1012C00007019DF8040009189DF8060008709DF8B4
:1012D0000400401C8DF80400BAE70DF107021078F5
:1012E0000102501C007841EA00000102901C0078C5
:1012F00041EA00000102D01C007841EA0000DDF85C
:1013000000E003B07047FFFF44F67F77C0F212079A
:101310007F1EFDD100BF00BF00BF00BF00BF7047F0
:1013200081B0CDF800E0FFF743FFFFF7EDFFFFF7D7
:101330004DFFFFF731FFFFF72FFFFFF739FFDDF814
:1013400000E001B07047FFFF41F6FF27C0F2B7078A
:101350007F1EFDD100BF00BF00BF00BF00BF7047B0
:10136000010C88B27047FFFF81B0CDF800E0324831
:10137000012100F0BDF8314801880A20B1FBF0F0EE
:101380002F4900B2FFF7ACFC2D48FFF78DFC01217F
:101390002B4800F0ADF82B48012100F0A9F82748B0
:1013A00002880A21B2FBF1F001FB1020244900B2AF
:1013B000FFF796FC2248FFF777FC0121204800F058
:1013C00097F82148022100F093F82048012100F00D
:1013D0008FF81F4801880A20B1FBF0F0184900B2CD
:1013E000FFF77EFC1648FFF75FFC0121144800F070
:1013F0007FF81848012100F07BF8154802880A217F
:10140000B2FBF1F001FB10200D4900B2FFF768FCC0
:101410000B48FFF749FC0121094800F069F80E4824
:10142000022100F065F80D48022100F061F8DDF8B6
:1014300000E001B0704700BF450000208C00002094
:101440008E0000205400002056000020590000208B
:1014500086000020680000206A0000206E00002046
:1014600082B0CDF800E0C8228DF80420FFF778FEA6
:101470009DF8042048B1FFF787FCD1B2521ED2B2CA
:10148000002901D100200DE0EEE7FFF769FE10B959
:10149000FFF77AFCF9E7FFF763FE10B1FFF774FC82
:1014A000F9E70120DDF800E002B0704781B0CDF827
:1014B00000E05FFA81F95FFA82FA0FE05FFA8AF1E1
:1014C0005FFA89F0FFF76CFC0DE05FFA8AF15FFAD2
:1014D00089F0FFF769FD06E0012004E00028EDD067
:1014E0000128F2D0F8E7DDF800E001B07047FFFF17
:1014F00083B0CDF800E0024610460D228DF808209A
:101500000A228DF809201FE0FFF736FE23E002785B
:101510002AB10190FFF730FE0198401CF7E71AE06E
:1015200002782AB10190FFF727FE0198401CF7E7E7
:1015300002AA1046FFF720FE0DF109021046FFF740
:101540001BFE08E0062007E00029DDD00129DED0DF
:101550000229E5D0F6E70020DDF800E003B070478F
:1015600081B0CDF800E0FFF73FFEDDF800E001B00C
:101570007047FFFF81B0CDF800E011E00846FFF7AB
:10158000F7FC16E00846FFF767FB12E00846FFF796
:10159000DFFB0EE00846FFF737FE0AE0012008E017
:1015A0000028EBD00128EDD02028EFD03028F1D052
:1015B000F4E7DDF800E001B07047FFFF81B01548A7
:1015C000006840F0010113480160134913480160AD
:1015D00010480168124801400E4801600D4801683A
:1015E0006FF4802001400B4801600C4801686FF4E3
:1015F000FE00014009480160064801686FF0A050F4
:101600000140044801604FF000010648016001B04C
:10161000704700BF001002400000FFF004100240BD
:10162000FFFFF6FE2C10024081B0CDF800E0002252
:1016300002210020FFF73AFFFFF772FE012202218C
:101640000020FFF733FFFFF70BFF90B1FFF7FAFD24
:101650000B49086068B10A480068FFF7F1FD0949C5
:10166000088007480068FFF77BFE07490880FFF7FE
:101670007BFEFFF769FEDDF800E001B0704700BFB8
:1016800088000020860000208C00002081B01CF81B
:10169000019B0BF8019BBBEB0A0FF8D101B070471F
:1016A00081B0CDF800E00A48FFF75AFF094802214F
:1016B000FFF71EFF08480221FFF71AFF0748022123
:1016C000FFF716FFFFF720FEDDF800E001B07047DE
:1016D000981A000000000020170000202E000020B3
:1016E00081B04FF000094FF0000CBDEB0A0F04DC95
:1016F000BDEB0B0F01DBD446EA464BF8049BBBEB7A
:101700000A0FFAD1BCEB0A0F05DDE246D9F800B0AA
:101710000BF1040BF1E701B07047FFFF81B0CDF88A
:1017200000E0012202210020FFF7C0FE002202217A
:101730000020FFF7BBFE42F280512020FFF71AFF86
:10174000FFF7E2FDDDF800E001B0704781B002492B
:101750000248016001B0704740190100CC00002030
:1017600081B0FEE701B0704781B0CDF800E0464A95
:10177000464B474C47494BF68030814206D9464894
:10178000006840F002014448016011E045F6C05095
:10179000814206D94048006840F001013E4801609E
:1017A00006E03D4801686FF0070001403A480160DB
:1017B000FFF704FF3948036039480460394802EAFA
:1017C00000013948016002F0010040B11946364875
:1017D000006800F00200002800D1F8E700E0194698
:1017E00002F4803040B10B462F48006800F400300E
:1017F000002800D1F8E700E00B4602F0805068B105
:101800002948006840F08051274801602648006858
:1018100000F00050002800D1F8E7FFE702F08060F8
:1018200078B12148006840F080611F48016011468E
:101830001A461D48006800F00060002800D1F8E753
:1018400001E011461A4601F0807070B11648006838
:1018500040F080711448016011461348006800F0A0
:10186000007000B9F9E70A46FFE70C48006800F08D
:101870000C01900000F00C00814200D0F5E7DDF88B
:1018800000E001B0704700BF8100010502841D0027
:1018900044060100401901000020024004100240EB
:1018A0002C100240FFFF0F0000100240FFF75CFF0A
:1018B00000F06CF9FFF74AFF00F028F9FFF72EFF60
:1018C000FFF7EEFEFFF7B0FEFCE7FEE72D2D2D2D16
:1018D0002D2D2D2D2D2D2D2D2D2D2D2D2D2D2D2D38
:1018E0002D2D002020202020444854323220204337
:1018F0006C69636B2020202020002D2D2D2D2D2D97
:101900002D2D2D2D2D2D2D2D2D2D2D2D2D2D2D2D07
:10191000002048756D69646974792020203A2000A0
:101920002E002025002054656D70657261747572FB
:10193000653A20002E0020B043002D2D2D2D2D2D99
:101940002D2D2D2D2D2D2D2D2D2D2D2D2D2D2D2DC7
:1019500000FFFFFF090000000A000000FFFFFFFF7B
:101960000000000000000000000000000000000077
:101970000000000000000000000000000000000067
:10198000000000000000000018080000180000001F
:101990000000000000000000000000000000000047
:1019A0000000000000000000000000000000000037
:1019B0000000000000000000000000000400000023
:1019C0003800000039000000FFFFFFFF00000000AA
:1019D0000000000000000000000000000000000007
:1019E00000000000000000000000000000000000F7
:1019F00000000000180800001800000000000000AF
:101A000000000000000000000000000000000000D6
:101A100000000000000000000000000000000000C6
:101A20000000000000000000300014083500000035
:101A300036000000FFFFFFFF000000000000000074
:101A40000000000000000000000000000000000096
:101A50000000000000000000000000000000000086
:101A6000180800001800000000000000000000003E
:101A70000000000000000000000000000000000066
:101A80000000000000000000000000000000000056
:101A900000000000080000084D0C0000410C000090
:101AA000F90B0000ED0B00001D0C0000290C0000DC
:101AB000350C0000110C0000050C000009090000A5
:101AC0001509000021090000CD0800009108000060
:101AD000A90800009D08000075090000610A0000C7
:101AE0006D0A0000550A00003D0A0000490A000086
:101AF0009D0A0000A90A0000000000000102030482
:101B000001020304060708090204060800B5DFF80D
:101B100014B0DFF814A0DFF814C0FFF7B7FD00BD64
:101B2000704700BF0000002085000020CC18000096
:101B3000FFFFFFFFFFFFFFFFFFFFFFFFFFFFFFFFB5
:101B4000FFFFFFFFFFFFFFFFFFFFFFFFFFFFFFFFA5
:101B5000FFFFFFFFFFFFFFFFFFFFFFFFFFFFFFFF95
:101B6000FFFFFFFFFFFFFFFFFFFFFFFFFFFFFFFF85
:101B7000FFFFFFFFFFFFFFFFFFFFFFFFFFFFFFFF75
:101B8000FFFFFFFFFFFFFFFFFFFFFFFF00B5DFF8D5
:101B900010B0DFF810A0FFF7A3FD00BD704700BF35
:101BA00000000020E0000020FFFFFFFFFFFFFFFF1D
:00000001FF
