:10000000CFEF0AF00000000000EF00F00000000059
:0A0010000000000000000000F3D71C
:0A001C00000E82B6010E006E120005
:0A002600000E82B2010E006E1200FF
:0A003000000E82B8010E006E1200EF
:0A003A00000E82BA010E006E1200E3
:0A004400000EACB2010E006E1200B7
:0A004E00000E80B0010E006E1200DB
:0A005800000EA4BA010E006E1200A3
:0A006200000E82BA010E006E1200BB
:0A006C00000E86B0010E006E1200B7
:0A007600000E84B2010E006E1200AD
:0A008000000E82B8010E006E12009F
:0A008A00000E81B0010E006E12009E
:0A009400000E84B4010E006E12008D
:0A009E00000E82B6010E006E120083
:0E00A800000189B102D0899401D08984120030
:0E00B600000189B102D08B9801D08B88120016
:0E00C400000189B102D08B9A01D08B8A120004
:0E00D200000189B102D08F9001D08F80120002
:0E00E000000189B102D08B9601D08B861200F0
:0E00EE00000189B102D08B9C01D08B8C1200D6
:0E00FC00000189B102D08D9601D08D861200D0
:0E010A00000189B102D08B9801D08B881200C1
:0E011800000189B102D08B9601D08B861200B7
:0E012600000189B102D08F9401D08F841200A5
:100134001DCF01F00F0122A302D02299228901C010
:0401440000F01200B5
:0E014800000189B102D08F9201D08F82120087
:0E015600000189B102D08A9401D08A8412007F
:0A016400000E9EBA010E006E12009C
:0C016E00000E0F0121B3010E006E120004
:0A017A00000E81B4010E006E1200A9
:0A018400000E86B4010E006E12009A
:0A018E00000E86B2010E006E120092
:0E019800000189B102D0899801D08988120037
:0E01A600000189B102D08B9601D08B86120029
:0E01B400000189B102D08B9801D08B88120017
:0E01C200000189B102D0899201D08982120019
:0A01D000000E82B4010E006E120052
:0A01DA00000E81B2010E006E12004B
:0A01E400000E82BE010E006E120034
:0A01EE00000E82BA010E006E12002E
:0A01F800000E82B6010E006E120028
:0A020200000E82B8010E006E12001B
:0A020C00000E82B8010E006E120011
:0E021600000189B102D08B9C01D08B8C1200AC
:0A022400000E84B0010E006E1200FF
:0A022E00000E82B0010E006E1200F7
:0A023800000E82B6010E006E1200E7
:0A024200000E80B2010E006E1200E3
:0A024C00000E82BC010E006E1200CD
:0A025600000E80B8010E006E1200C9
:0A026000000E82BE010E006E1200B7
:0A026A00000E82B8010E006E1200B3
:0A027400000E80B4010E006E1200AF
:0A027E00000E84B6010E006E12009F
:0A028800000E82B6010E006E120097
:0A029200000E82B6010E006E12008D
:0A029C00000E82B8010E006E120081
:0A02A600000E82BC010E006E120073
:0E02B000000189B102D08B9E01D08B8E12000E
:1002BE00AECF01F0ABA202D0AB98AB8801C000F07C
:0202CE0012001C
:0E02D000000189B102D08B9801D08B881200FA
:0E02DE00000189B102D08B9A01D08B8A1200E8
:0E02EC00000189B102D08B9A01D08B8A1200DA
:0E02FA00000189B102D08B9801D08B881200D0
:0E030800000189B102D08B9201D08B821200CD
:0E031600000189B102D08B9E01D08B8E1200A7
:0E032400000189B102D08A9001D08A801200B7
:0E033200000189B102D08B9601D08B8612009B
:100340000F0121B302D00000FBD789C01CFF1200AF
:0E035000000189B102D08B9801D08B88120079
:0E035E00000189B102D08D9001D08D80120077
:0E036C00000189B102D08B9001D08B8012006D
:0E037A00000189B102D08D9401D08D84120053
:0E038800000189B102D08B9601D08B86120045
:0E039600ACB202D00000FCD789C0ADFF12004F
:0E03A400000189B102D08A9201D08A82120033
:0E03B200000189B102D08B9601D08B8612001B
:0E03C000000189B102D08D9201D08D82120011
:0E03CE00000189B102D0899001D0898012000F
:0E03DC00000189B102D08B9401D08B841200F5
:1003EA00400E2B6E030E2C6E890E2D6E000E2E6E95
:1003FA00340E1F6E010E206E000E216E000E226E4C
:10040A00580E236E000E246E000E256E000E266E08
:10041A006E0E376E010E386E000E396E000E3A6E91
:10042A000F01218B900E226F98849892A4AA03D070
:08043A001DCF00F0FBD71200FA
:10044200F250026EF29E0500FF6A0150FE6E0050ED
:08045200FD6E02BEF28E1200E5
:10045A00960E2B6E030E2C6E890E2D6E000E2E6ECE
:10046A00BE0E1F6E020E206E000E216E000E226E50
:10047A00640E236E010E246E000E256E000E266E8B
:10048A00440E376E000E386E000E396E000E3A6E4C
:10049A00AC8A900EAB6E948E949C9EAA03D0AECF7B
:0604AA0000F0FBD7120078
:1004B0000B6A0A6A096A086A0E6A0334083604502D
:1004C000085E0550D8A0053C095E0650D8A0063C41
:1004D0000A5E0750D8A0073C0B5EE86AD8A0010E60
:1004E0000E5E0336070E0C6E0334083609360A36E4
:1004F0000B360E36045003A012D0085E0550D8A06B
:10050000053C095E0650D8A0063C0A5E0750D8A0FC
:10051000073C0B5EE86AD8A0010E0E5E11D00826DB
:100520000550D8B0053C09260650D8B0063C0A262E
:100530000750D8B0073C0B26E86AD8B0010E0E264B
:1005400003360C2ED1D70234083609360A360B365C
:100550000E36045003A012D0085E0550D8A0053C0A
:10056000095E0650D8A0063C0A5E0750D8A0073C9A
:100570000B5EE86AD8A0010E0E5E11D00826055069
:10058000D8B0053C09260650D8B0063C0A260750CC
:10059000D8B0073C0B26E86AD8B0010E0E2602360A
:1005A000070E0C6E0234083609360A360B360E3644
:1005B000045002A012D0085E0550D8A0053C095E88
:1005C0000650D8A0063C0A5E0750D8A0073C0B5E38
:1005D000E86AD8A0010E0E5E11D008260550D8B0EA
:1005E000053C09260650D8B0063C0A260750D8B06C
:1005F000073C0B26E86AD8B0010E0E2602360C2EF8
:10060000D1D70134083609360A360B360E36045077
:1006100002A012D0085E0550D8A0053C095E065025
:10062000D8A0063C0A5E0750D8A0073C0B5EE86ADB
:10063000D8A0010E0E5E11D008260550D8B0053C9A
:1006400009260650D8B0063C0A260750D8B0073C09
:100650000B26E86AD8B0010E0E260136070E0C6E86
:100660000134083609360A360B360E36045001A01E
:1006700012D0085E0550D8A0053C095E0650D8A0EF
:10068000063C0A5E0750D8A0073C0B5EE86AD8A07B
:10069000010E0E5E11D008260550D8B0053C092683
:1006A0000650D8B0063C0A260750D8B0073C0B26A7
:1006B000E86AD8B0010E0E2601360C2ED1D70034D0
:1006C000083609360A360B360E36045001A012D011
:1006D000085E0550D8A0053C095E0650D8A0063C2F
:1006E0000A5E0750D8A0073C0B5EE86AD8A0010E4E
:1006F0000E5E11D008260550D8B0053C09260650DC
:10070000D8B0063C0A260750D8B0073C0B26E86A4A
:10071000D8B0010E0E260036070E0C6E00340836D7
:1007200009360A360B360E36045000A012D0085E89
:100730000550D8A0053C095E0650D8A0063C0A5ECC
:100740000750D8A0073C0B5EE86AD8A0010E0E5EE9
:1007500011D008260550D8B0053C09260650D8B05F
:10076000063C0A260750D8B0073C0B26E86AD8B0EA
:10077000010E0E2600360C2ED1D700B00ED004503C
:1007800008260550D8B0053C09260650D8B0063CCE
:0C0790000A260750D8B0073C0B261200C8
:10079C0021D0CF0EAF6EAC945ADE6BD0670EAF6E1D
:1007AC00AC9455DE66D0CF0EAF6EAC8450DE61D00B
:1007BC00670EAF6EAC844BDE5CD0440EAF6EAC8477
:1007CC0046DE57D0220EAF6EAC8441DE52D0060E00
:1007DC00006E58D0000E006E0001821908E1005026
:1007EC00811905E1120E801902E17F51C00AD1E096
:1007FC00000E006E821908E10050811905E1250EEA
:10080C00801902E17F51800AC9E0000E006E821946
:10081C0008E10050811905E14B0E801902E17F516E
:10082C00000AC1E0000E006E821908E10050811927
:10083C0005E1960E801902E17F51000AB9E0000E25
:10084C00006E821908E10050811905E1E10E801952
:10085C0002E17F51000AB1E08251000A08E18151A6
:10086C00010A05E18051C20A02E17F51000AAAE0A7
:10087C00AED7960E336E030E346E890E356E000EA7
:06088C00366E006A120046
:1008920031C0E1FF32C0E2FF010EE66E2FC000F070
:0808A20030C001F0CDDD1200B1
:1008AA00300E00017F25006E000E8021016E000EC1
:1008BA008121026E080E0024F66E000E0120F76EEA
:1008CA00000E0220F86E0900F5CF27F00900F5CFD7
:1008DA0028F00900F5CF29F00900F5CF2AF0080E13
:1008EA007F25F66E000E8021F76E000E8121F86ECC
:1008FA000900F5CF2FF00900F5CF30F00900F5CF48
:0A090A0031F00900F5CF32F01200C1
:1009140038D00F0120870D0E1F6F040E1E6F218526
:1009240062DD7ED00F012087060E1F6F820E1E6FC0
:10093400218559DD75D00F012087030E1F6F400EEE
:100944001E6F218550DD6CD00F012087010E1F6FB3
:10095400A00E1E6F218547DD63D00F012087010E95
:100964001F6F150E1E6F21853EDD5AD00F012087A3
:100974001F6B8A0E1E6F218536DD52D0060E006E67
:1009840058D0000E006E0001821908E10050811950
:1009940005E1120E801902E17F51C00ABAE0000E8F
:1009A400006E821908E10050811905E1250E8019B5
:1009B40002E17F51800AB6E0000E006E821908E160
:1009C4000050811905E14B0E801902E17F51000AA4
:1009D400B2E0000E006E821908E10050811905E1B1
:1009E400960E801902E17F51000AAEE0000E006EFF
:1009F400821908E10050811905E1E10E801902E134
:100A04007F51000AAAE08251000A08E18151010ADB
:100A140005E18051C20A02E17F51000AA7E0AED786
:100A2400400E336E030E346E890E356E000E366E34
:040A3400006A120042
:100A38005DD0000180B102D0929401D092840F0160
:100A480025957AD0000180B102D0969601D096867D
:100A580073D0000180B102D0969401D096846CD0F6
:100A6800000180B102D0949601D0948665D000012F
:100A780080B102D0949801D094885ED0000180B1F2
:100A880002D0949A01D0948A57D0000180B102D044
:100A9800989001D0988050D0000180B102D09394F2
:100AA80001D0938449D0000180B102D0989401D03C
:100AB80098840F01239540D0000180B102D098920C
:100AC80001D098820F01239337D0000180B102D062
:100AD800949601D0948630D0000180B102D09498C9
:100AE80001D0948829D0010E006E28D000017F51D2
:100AF800000A9FE07F51010AA5E07F51020AA9E0A0
:100B08007F51030AADE07F51040AB1E07F51050A25
:100B1800B5E07F51060AB9E07F51070ABDE07F5171
:100B2800080AC1E07F51090AC7E07F510A0ACDE0EF
:0E0B38007F510B0AD1E0D7D7000E006E1200DD
:100B460021D0CF0EAF6EAC9485DC6BD0670EAF6E46
:100B5600AC9480DC66D0CF0EAF6EAC847BDC61D00B
:100B6600670EAF6EAC8476DC5CD0440EAF6EAC84A0
:100B760071DC57D0220EAF6EAC846CDC52D0060E00
:100B8600006E58D0000E006E0001821908E1005078
:100B9600811905E1120E801902E17F51C00AD1E0E8
:100BA600000E006E821908E10050811905E1250E3C
:100BB600801902E17F51800AC9E0000E006E821999
:100BC60008E10050811905E14B0E801902E17F51C1
:100BD600000AC1E0000E006E821908E1005081197A
:100BE60005E1960E801902E17F51000AB9E0000E78
:100BF600006E821908E10050811905E1E10E8019A5
:100C060002E17F51000AB1E08251000A08E18151F8
:100C1600010A05E18051C20A02E17F51000AAAE0F9
:100C2600AED7960E336E030E346E890E356E000EF9
:060C3600366E006A120098
:100C3C0059D0000180B102D0929201D092820F0162
:100C4C00259376D0000180B102D0929801D0928881
:100C5C006FD0000180B102D0969201D0968268D0FC
:100C6C00000180B102D0949601D0948661D000012D
:100C7C0080B102D0949801D094885AD0000180B1F0
:100C8C0002D0949A01D0948A53D0000180B102D042
:100C9C00949401D094844CD0000180B102D09392F2
:100CAC0001D0938245D0000180B102D0949E01D036
:100CBC00948E3ED0000180B102D0949C01D0948CD3
:100CCC0037D0000180B102D0949601D0948630D0F8
:100CDC00000180B102D0949801D0948829D0010EE3
:100CEC00006E28D000017F51000AA3E07F51010A59
:100CFC00A9E07F51020AADE07F51030AB1E07F51B8
:100D0C00040AB5E07F51050AB9E07F51060ABDE03F
:100D1C007F51070AC1E07F51080AC5E07F51090ADB
:100D2C00C9E07F510A0ACDE07F510B0AD1E0D7D739
:060D3C00000E006E120023
:100D420027D0CF0EAF6EAC942DEC02F070D0670EB0
:100D5200AF6EAC942DEC02F06AD0CF0EAF6EAC84C5
:100D62002DEC02F064D0670EAF6EAC842DEC02F075
:100D72005ED0440EAF6EAC842DEC02F058D0220E41
:100D8200AF6EAC842DEC02F052D0060E006E58D03D
:100D9200000E006E0001821908E10050811905E180
:100DA200120E801902E17F51C00ACBE0000E006EE4
:100DB200821908E10050811905E1250E801902E12E
:100DC2007F51800AC4E0000E006E821908E10050D3
:100DD200811905E14B0E801902E17F51000ABDE045
:100DE200000E006E821908E10050811905E1960E8D
:100DF200801902E17F51000AB6E0000E006E8219EE
:100E020008E10050811905E1E10E801902E17F51EC
:100E1200000AAFE08251000A08E18151010A05E1AE
:100E22008051C20A02E17F51000AA9E0AED7960EB4
:100E3200336E030E346E890E356E000E366E006A06
:020E420012009C
:100E440059D0000180B102D0929001D092800F015C
:100E5400259176D0000180B102D0949001D0948085
:100E64006FD0000180B102D0969001D0968068D0F6
:100E7400000180B102D0949601D0948661D0000123
:100E840080B102D0949801D094885AD0000180B1E6
:100E940002D0949A01D0948A53D0000180B102D038
:100EA400949201D094824CD0000180B102D09390EE
:100EB40001D0938045D0000180B102D0949E01D02E
:100EC400948E3ED0000180B102D0949C01D0948CC9
:100ED40037D0000180B102D0949601D0948630D0EE
:100EE400000180B102D0949801D0948829D0010ED9
:100EF400006E28D000017F51000AA3E07F51010A4F
:100F0400A9E07F51020AADE07F51030AB1E07F51AD
:100F1400040AB5E07F51050AB9E07F51060ABDE035
:100F24007F51070AC1E07F51080AC5E07F51090AD1
:100F3400C9E07F510A0ACDE07F510B0AD1E0D7D72F
:060F4400000E006E120019
:100F4A000001856B866B000E865D02E10A0E855DE7
:100F5A000BE285518325E16E86518421E26E200ED3
:100F6A00E66E854B862BEFD785518325E16E865138
:100F7A008421E26EE66A010E855F000E865B85516A
:100F8A008325876F86518421886F0A0E046E000EAE
:100F9A00056E066E076E7FC000F080C001F081C04A
:100FAA0002F082C003F058EC02F008C000F009C059
:100FBA0001F00AC002F00BC003F0300E002687C011
:100FCA00E1FF88C0E2FF00C0E6FF0A0E046E000ED1
:100FDA00056E066E076E7FC000F080C001F081C00A
:100FEA0002F082C003F058EC02F000C07FF001C0AA
:100FFA0080F002C081F003C082F0000E046E031874
:10100A0008E10450021805E10450011802E10050F9
:10101A00000A01E105D0010E855F000E865BAFD79D
:02102A001200B2
:0A102C00050E0D6E0D2EFED712000A
:0A103600350E0D6E0D2EFED71200D0
:0A104000750E0D6E0D2EFED7120086
:0E104A0027C000F028C001F021EC02F01200D7
:10105800090E0B6E1E0E0C6EE40E0D6E0D2EFED7D5
:0C1068000C2EFCD70B2EFAD70000120053
:1010740031C0E1FF32C0E2FFE66A2FC000F030C0A9
:0810840001F021EC02F0120062
:10108C00150E0C6EC60E0D6E0D2EFED70C2EFCD74B
:04109C00000012003E
:1010A00035C0E1FF36C0E2FF7FC0E9FF80C0EAFF44
:1010B000EECFE6FF33C000F034C001F021EC02F0C7
:0410C000006A1200B0
:1010C4002CD072C07FF073C080F074C081F075C002
:1010D40082F037DD30D072C07FF073C080F074C00E
:1010E40081F075C082F02BDE26D072C07FF073C011
:1010F40080F074C081F075C082F00ADC1CD072C02C
:101104007FF073C080F074C081F075C082F0CEECC3
:1011140003F011D0010E006E0ED000017151000ACF
:10112400D0E07151010AD7E07151020ADEE0715139
:08113400100AE5E0EFD71200FC
:10113C00C80E0001716F83DF00520AE071DF71C0CD
:10114C0000F000017107005202E1006A0DD0F3D7E4
:10115C0076DF005202E164DFFBD771DF005202E060
:0A116C005FDFFBD7010E006E1200DA
:1011760015D072C07FF073C080F061DE1AD072C0E5
:101186007FF073C080F057DD14D072C07FF073C05B
:1011960080F04FDC0ED0010E006E0BD000017151B5
:1011A600000AE7E07151010AEAE07151020AEDE036
:0411B600F2D712005A
:1011BA000001796B7A6B71C07BF072C07CF073C0EE
:1011CA007DF074C07EF0800E7419006E800E005C93
:1011DA0008E1000E735D05E1000E725D02E1000E8A
:1011EA00715D10E2010E796F000E7A6F7B6B7C6B7A
:1011FA007D6B7E6B71517B5F72517C5B73517D5B42
:10120A0074517E5B7BC07FF07CC080F07DC081F032
:10121A007EC082F075C083F076C084F091DE0B0E3A
:10122A00776F000E786F000E006E7851005C02E155
:10123A007751000819E277517525E16E78517621C8
:10124A00E26E010E775D006E000E7859016E005055
:10125A007525E96E01507621EA6EEECFE6FF010EA2
:10126A00775F000E785BDFD775C0E1FF76C0E2FFDB
:10127A00200EE66E79517A111AE0776B786B775106
:10128A007525E96E78517621EA6EEE50200A03E15F
:10129A00774B782BF4D7010E775F000E785B775186
:1012AA007525E16E78517621E26E2D0EE66E1200FA
:1012BA00520E0B6E2B0E0C6E000E0D6E0D2EFED7FF
:0C12CA000C2EFCD70B2EFAD700001200EF
:1012D60071C074F072C075F00D0E0001766F0A0EC3
:1012E600776F35D074C07FF075C080F0D6DE3AD007
:1012F60074C0E9FF75C0EAFFEE5209E074C07FF0E2
:1013060075C080F0CADE0001744B752BF1D72AD068
:1013160074C0E9FF75C0EAFFEE5209E074C07FF0C1
:1013260075C080F0BADE0001744B752BF1D7000151
:10133600760E7F6F000E806FB0DE770E00017F6F36
:10134600000E806FAADE0ED0060E006E0CD00001D5
:101356007351000AC7E07351010ACAE07351020AC9
:08136600D7E0F2D7006A120083
:10136E0071C07FF072C080F073C081F055EC04F054
:02137E0012005B
:101380000001746B756B766B776B716B050E715D1D
:101390002CE2010E726F725108081BE356DE0052F8
:1013A00002E144DEFBD747DE46DE45DE000173374F
:1013B00073914BDE00520AE00001738141DE40DE92
:1013C00035DE43DE005202E031DEFBD70001722B36
:1013D000E2D7780EE16E000EE26E7151E126D8B0D0
:1013E000E22A73C0E6FF712BD1D778C074F0000EEB
:1013F000756F766F776F76C003F075C002F074C0BA
:1014000001F0006A00C074F001C075F002C076F00F
:1014100003C077F079510010056E01C006F002C0DC
:1014200007F003C008F0000E06120712081205C0EC
:1014300074F006C075F007C076F008C077F007C0FA
:1014400003F006C002F005C001F0006A00C074F0AD
:1014500001C075F002C076F003C077F07A51001039
:10146000056E01C006F002C007F003C008F0000ED0
:1014700006120712081205C074F006C075F007C006
:1014800076F008C077F007C003F006C002F005C090
:1014900001F0006A00C074F001C075F002C076F07F
:1014A00003C077F07B510012000E011202120312EA
:1014B00000C074F001C075F002C076F003C077F090
:0214C000120018
:1014C20049EC04F0C8DDD5DDE0DDDFDD49EC04F0F8
:0214D200120006
:1014D4000001716B020E726F010E736F4ADE000120
:1014E400716B020E726F736B44DE100E0001716F2C
:1014F400800E726F250E736F000E746F756FE0DDD2
:04150400A9DD12004B
:101508000900F5CFE6FF0006FBE10106F9E112004C
:101518000001716B020E726F736B29DECEDF000162
:10152800716B020E726F010E736F21DE03DE0050C5
:10153800000A25E021DF00C03BF001C03CF002C0FA
:101548003DF003C03EF0150E716F000E726F010E74
:10155800736FBDDE3BC071F03CC072F03DC073F0EC
:101568003EC074F03F0E0001756F000E766F21DEED
:101578003F0E716F000E726F020E736FA8DE99DE58
:0215880012004F
:10158A00CE0E0001716F150E726F000E736FEADED8
:04159A005EDD120000
:10159E00200E156E760E166E610E176E6C0E186E90
:1015AE00750E196E650E1A6E200E1B6E3A0E1C6E9F
:1015BE00200E1D6E1E6A87DFE1DFA7DFFED7FFD785
:1015CE00CE0389006C0389005E0389003203890013
:1015DE00D0028900EC0289000803890024038900E7
:1015EE001603890016028900A6018900B40189003C
:1015FE004E0000002E0200002402000038020000FF
:10160E00300000003A000000260000008A000000B2
:10161E00600200004C020000920200009C020000DA
:020000040030CA
:0E00000015137F7CF98B91FFFFC0FFE0FF40DE
:00000001FF
